{
  "_format": "hh-sol-artifact-1",
  "contractName": "PaymentContract",
  "sourceName": "Contracts/PaymentContract.sol",
  "abi": [
    {
      "inputs": [],
      "stateMutability": "nonpayable",
      "type": "constructor"
    },
    {
      "anonymous": false,
      "inputs": [
        {
          "indexed": true,
          "internalType": "uint256",
          "name": "paymentIndex",
          "type": "uint256"
        },
        {
          "indexed": true,
          "internalType": "address",
          "name": "receiver",
          "type": "address"
        },
        {
          "indexed": false,
          "internalType": "uint256",
          "name": "amount",
          "type": "uint256"
        }
      ],
      "name": "EscrowReleased",
      "type": "event"
    },
    {
      "anonymous": false,
      "inputs": [
        {
          "indexed": true,
          "internalType": "address",
          "name": "sender",
          "type": "address"
        },
        {
          "indexed": true,
          "internalType": "address",
          "name": "receiver",
          "type": "address"
        },
        {
          "indexed": false,
          "internalType": "uint256",
          "name": "amount",
          "type": "uint256"
        },
        {
          "indexed": false,
          "internalType": "uint256",
          "name": "timestamp",
          "type": "uint256"
        }
      ],
      "name": "PaymentMade",
      "type": "event"
    },
    {
      "inputs": [
        {
          "internalType": "uint256",
          "name": "index",
          "type": "uint256"
        }
      ],
      "name": "getPayment",
      "outputs": [
        {
          "components": [
            {
              "internalType": "address",
              "name": "sender",
              "type": "address"
            },
            {
              "internalType": "address",
              "name": "receiver",
              "type": "address"
            },
            {
              "internalType": "uint256",
              "name": "amount",
              "type": "uint256"
            },
            {
              "internalType": "uint256",
              "name": "timestamp",
              "type": "uint256"
            },
            {
              "internalType": "enum PaymentContract.Status",
              "name": "status",
              "type": "uint8"
            }
          ],
          "internalType": "struct PaymentContract.Payment",
          "name": "",
          "type": "tuple"
        }
      ],
      "stateMutability": "view",
      "type": "function"
    },
    {
      "inputs": [
        {
          "internalType": "address",
          "name": "receiver",
          "type": "address"
        },
        {
          "internalType": "uint256",
          "name": "amount",
          "type": "uint256"
        },
        {
          "internalType": "bool",
          "name": "escrow",
          "type": "bool"
        }
      ],
      "name": "makePayment",
      "outputs": [],
      "stateMutability": "payable",
      "type": "function"
    },
    {
      "inputs": [],
      "name": "owner",
      "outputs": [
        {
          "internalType": "address",
          "name": "",
          "type": "address"
        }
      ],
      "stateMutability": "view",
      "type": "function"
    },
    {
      "inputs": [
        {
          "internalType": "uint256",
          "name": "",
          "type": "uint256"
        }
      ],
      "name": "payments",
      "outputs": [
        {
          "internalType": "address",
          "name": "sender",
          "type": "address"
        },
        {
          "internalType": "address",
          "name": "receiver",
          "type": "address"
        },
        {
          "internalType": "uint256",
          "name": "amount",
          "type": "uint256"
        },
        {
          "internalType": "uint256",
          "name": "timestamp",
          "type": "uint256"
        },
        {
          "internalType": "enum PaymentContract.Status",
          "name": "status",
          "type": "uint8"
        }
      ],
      "stateMutability": "view",
      "type": "function"
    },
    {
      "inputs": [
        {
          "internalType": "uint256",
          "name": "paymentIndex",
          "type": "uint256"
        }
      ],
      "name": "releaseEscrow",
      "outputs": [],
      "stateMutability": "nonpayable",
      "type": "function"
    },
    {
      "inputs": [],
      "name": "totalPayments",
      "outputs": [
        {
          "internalType": "uint256",
          "name": "",
          "type": "uint256"
        }
      ],
      "stateMutability": "view",
      "type": "function"
    }
  ],
  "bytecode": "0x6080604052348015600f57600080fd5b5033600160006101000a81548173ffffffffffffffffffffffffffffffffffffffff021916908373ffffffffffffffffffffffffffffffffffffffff160217905550611032806100606000396000f3fe6080604052600436106100545760003560e01c80625b4487146100595780633280a83614610084578063743c8736146100c157806387d81789146100dd5780638da5cb5b1461011e578063ed65316414610149575b600080fd5b34801561006557600080fd5b5061006e610172565b60405161007b9190610a05565b60405180910390f35b34801561009057600080fd5b506100ab60048036038101906100a69190610a51565b61017e565b6040516100b89190610bad565b60405180910390f35b6100db60048036038101906100d69190610c2c565b6102fe565b005b3480156100e957600080fd5b5061010460048036038101906100ff9190610a51565b6105b4565b604051610115959493929190610c9d565b60405180910390f35b34801561012a57600080fd5b50610133610647565b6040516101409190610cf0565b60405180910390f35b34801561015557600080fd5b50610170600480360381019061016b9190610a51565b61066d565b005b60008080549050905090565b61018661097f565b8160008054905081106101ce576040517f08c379a00000000000000000000000000000000000000000000000000000000081526004016101c590610d68565b60405180910390fd5b600083815481106101e2576101e1610d88565b5b90600052602060002090600502016040518060a00160405290816000820160009054906101000a900473ffffffffffffffffffffffffffffffffffffffff1673ffffffffffffffffffffffffffffffffffffffff1673ffffffffffffffffffffffffffffffffffffffff1681526020016001820160009054906101000a900473ffffffffffffffffffffffffffffffffffffffff1673ffffffffffffffffffffffffffffffffffffffff1673ffffffffffffffffffffffffffffffffffffffff16815260200160028201548152602001600382015481526020016004820160009054906101000a900460ff1660018111156102e0576102df610ace565b5b60018111156102f2576102f1610ace565b5b81525050915050919050565b813414610340576040517f08c379a000000000000000000000000000000000000000000000000000000000815260040161033790610e03565b60405180910390fd5b60008211610383576040517f08c379a000000000000000000000000000000000000000000000000000000000815260040161037a90610e6f565b60405180910390fd5b600081610391576001610394565b60005b905060006040518060a001604052803373ffffffffffffffffffffffffffffffffffffffff1681526020018673ffffffffffffffffffffffffffffffffffffffff1681526020018581526020014281526020018360018111156103fa576103f9610ace565b5b815250908060018154018082558091505060019003906000526020600020906005020160009091909190915060008201518160000160006101000a81548173ffffffffffffffffffffffffffffffffffffffff021916908373ffffffffffffffffffffffffffffffffffffffff16021790555060208201518160010160006101000a81548173ffffffffffffffffffffffffffffffffffffffff021916908373ffffffffffffffffffffffffffffffffffffffff160217905550604082015181600201556060820151816003015560808201518160040160006101000a81548160ff021916908360018111156104f3576104f2610ace565b5b021790555050508373ffffffffffffffffffffffffffffffffffffffff163373ffffffffffffffffffffffffffffffffffffffff167f1f004c54eef332ef6912dae8f1775c102da23bec79ccf602eaaa072938e96b678542604051610559929190610e8f565b60405180910390a3816105ae578373ffffffffffffffffffffffffffffffffffffffff166108fc849081150290604051600060405180830381858888f193505050501580156105ac573d6000803e3d6000fd5b505b50505050565b600081815481106105c457600080fd5b90600052602060002090600502016000915090508060000160009054906101000a900473ffffffffffffffffffffffffffffffffffffffff16908060010160009054906101000a900473ffffffffffffffffffffffffffffffffffffffff16908060020154908060030154908060040160009054906101000a900460ff16905085565b600160009054906101000a900473ffffffffffffffffffffffffffffffffffffffff1681565b600160009054906101000a900473ffffffffffffffffffffffffffffffffffffffff1673ffffffffffffffffffffffffffffffffffffffff163373ffffffffffffffffffffffffffffffffffffffff16146106fd576040517f08c379a00000000000000000000000000000000000000000000000000000000081526004016106f490610f04565b60405180910390fd5b806000805490508110610745576040517f08c379a000000000000000000000000000000000000000000000000000000000815260040161073c90610d68565b60405180910390fd5b600160149054906101000a900460ff1615610795576040517f08c379a000000000000000000000000000000000000000000000000000000000815260040161078c90610f70565b60405180910390fd5b60018060146101000a81548160ff02191690831515021790555060008083815481106107c4576107c3610d88565b5b90600052602060002090600502019050600060018111156107e8576107e7610ace565b5b8160040160009054906101000a900460ff16600181111561080c5761080b610ace565b5b1461084c576040517f08c379a000000000000000000000000000000000000000000000000000000000815260040161084390610fdc565b60405180910390fd5b60018160040160006101000a81548160ff0219169083600181111561087457610873610ace565b5b02179055508060010160009054906101000a900473ffffffffffffffffffffffffffffffffffffffff1673ffffffffffffffffffffffffffffffffffffffff166108fc82600201549081150290604051600060405180830381858888f193505050501580156108e7573d6000803e3d6000fd5b508060010160009054906101000a900473ffffffffffffffffffffffffffffffffffffffff1673ffffffffffffffffffffffffffffffffffffffff16837f6244ed823ca6be0f11bc890c3fafcf3c29cb23420c14243642e930b5e07e6d0a83600201546040516109579190610a05565b60405180910390a3506000600160146101000a81548160ff0219169083151502179055505050565b6040518060a00160405280600073ffffffffffffffffffffffffffffffffffffffff168152602001600073ffffffffffffffffffffffffffffffffffffffff1681526020016000815260200160008152602001600060018111156109e6576109e5610ace565b5b81525090565b6000819050919050565b6109ff816109ec565b82525050565b6000602082019050610a1a60008301846109f6565b92915050565b600080fd5b610a2e816109ec565b8114610a3957600080fd5b50565b600081359050610a4b81610a25565b92915050565b600060208284031215610a6757610a66610a20565b5b6000610a7584828501610a3c565b91505092915050565b600073ffffffffffffffffffffffffffffffffffffffff82169050919050565b6000610aa982610a7e565b9050919050565b610ab981610a9e565b82525050565b610ac8816109ec565b82525050565b7f4e487b7100000000000000000000000000000000000000000000000000000000600052602160045260246000fd5b60028110610b0e57610b0d610ace565b5b50565b6000819050610b1f82610afd565b919050565b6000610b2f82610b11565b9050919050565b610b3f81610b24565b82525050565b60a082016000820151610b5b6000850182610ab0565b506020820151610b6e6020850182610ab0565b506040820151610b816040850182610abf565b506060820151610b946060850182610abf565b506080820151610ba76080850182610b36565b50505050565b600060a082019050610bc26000830184610b45565b92915050565b610bd181610a9e565b8114610bdc57600080fd5b50565b600081359050610bee81610bc8565b92915050565b60008115159050919050565b610c0981610bf4565b8114610c1457600080fd5b50565b600081359050610c2681610c00565b92915050565b600080600060608486031215610c4557610c44610a20565b5b6000610c5386828701610bdf565b9350506020610c6486828701610a3c565b9250506040610c7586828701610c17565b9150509250925092565b610c8881610a9e565b82525050565b610c9781610b24565b82525050565b600060a082019050610cb26000830188610c7f565b610cbf6020830187610c7f565b610ccc60408301866109f6565b610cd960608301856109f6565b610ce66080830184610c8e565b9695505050505050565b6000602082019050610d056000830184610c7f565b92915050565b600082825260208201905092915050565b7f496e76616c6964207061796d656e7420696e6465780000000000000000000000600082015250565b6000610d52601583610d0b565b9150610d5d82610d1c565b602082019050919050565b60006020820190508181036000830152610d8181610d45565b9050919050565b7f4e487b7100000000000000000000000000000000000000000000000000000000600052603260045260246000fd5b7f496e636f72726563742045544820616d6f756e742073656e7400000000000000600082015250565b6000610ded601983610d0b565b9150610df882610db7565b602082019050919050565b60006020820190508181036000830152610e1c81610de0565b9050919050565b7f4d7573742073656e642045544800000000000000000000000000000000000000600082015250565b6000610e59600d83610d0b565b9150610e6482610e23565b602082019050919050565b60006020820190508181036000830152610e8881610e4c565b9050919050565b6000604082019050610ea460008301856109f6565b610eb160208301846109f6565b9392505050565b7f4e6f7420636f6e7472616374206f776e65720000000000000000000000000000600082015250565b6000610eee601283610d0b565b9150610ef982610eb8565b602082019050919050565b60006020820190508181036000830152610f1d81610ee1565b9050919050565b7f5265656e7472616e6379206e6f7420616c6c6f77656400000000000000000000600082015250565b6000610f5a601683610d0b565b9150610f6582610f24565b602082019050919050565b60006020820190508181036000830152610f8981610f4d565b9050919050565b7f5061796d656e74206e6f742070656e64696e6700000000000000000000000000600082015250565b6000610fc6601383610d0b565b9150610fd182610f90565b602082019050919050565b60006020820190508181036000830152610ff581610fb9565b905091905056fea26469706673582212207569ae213268a0727fbf11b0f56e9564c2c23e3597a6a7f7fe3d4cf830ca416f64736f6c634300081c0033",
  "linkReferences": {},
  "deployedLinkReferences": {}
}